:020000040800F2
:1030000018040020453100081D330008153300085E
:1030100019330008C13100084937000800000000DA
:103020000000000000000000000000009D340008C7
:10303000C531000800000000A533000889350008EC
:103040005F3100085F3100085F3100085F31000820
:103050005F3100085F3100085F3100085F31000810
:103060005F3100085F3100085F3100085F31000800
:103070005F3100085F3100085F3100085F310008F0
:103080005F3100085F3100085F3100085F310008E0
:103090005F3100085F3100085F3100085F310008D0
:1030A0005F3100085F3100085F3100085F310008C0
:1030B0005F3100085F3100085F3100085F310008B0
:1030C0005F3100085F3100085F3100085F310008A0
:1030D0005F3100085F3100085F3100085F31000890
:1030E0005F3100085F3100085F3100085F31000880
:1030F0005F3100085F3100085F3100085F31000870
:103100005F3100085F3100085F3100085F3100085F
:103110005F3100085F3100085F3100085F3100084F
:103120005F3100085F3100085F3100085F3100083F
:10313000DFF80CD000F032F8004800476D37000887
:10314000180400200648804706480047FEE7FEE7CF
:10315000FEE7FEE7FEE7FEE7FEE7FEE7FEE7FEE747
:103160008D3500083131000840EA01039B0703D088
:1031700009E008C9121F08C0042AFAD203E011F8B6
:10318000013B00F8013B521EF9D27047421C10F877
:10319000011B0029FBD1801A70470000064C074D27
:1031A00006E0E06840F0010394E807009847103417
:1031B000AC42F6D3FFF7C0FFC4390008E439000879
:1031C00000BFFEE770470021002200BF06E000229A
:1031D00000E0521CB2F57A7FFBDB491C8142F6D33A
:1031E00070470021002200BF06E0002200E0521CD0
:1031F000B2F57A7FFBDB491C8142F6D370472DE99B
:10320000F04102460025002600200023002400276C
:1032100091F803C00CF00F0591F803C00CF0100CEE
:10322000BCF1000F03D091F802C04CEA050591F8FB
:1032300000C0BCF1000F31D0146800202BE04FF02B
:10324000010C0CFA00F3B1F800C00CEA03069E4230
:1032500020D183004FF00F0C0CFA03F7BC4305FAA2
:1032600003FC4CEA040491F803C0BCF1280F06D11A
:103270004FF0010C0CFA00FCC2F814C00AE091F8FF
:1032800003C0BCF1480F05D14FF0010C0CFA00FC53
:10329000C2F810C0401C0828D1D31460B1F800C097
:1032A000BCF1FF0F34DD546800202EE000F1080C63
:1032B0004FF0010808FA0CF3B1F800C00CEA03065D
:1032C0009E4221D183004FF00F0C0CFA03F7BC4350
:1032D00005FA03FC4CEA040491F803C0BCF1280F82
:1032E00005D100F1080C08FA0CF8C2F8148091F826
:1032F00003C0BCF1480F07D100F1080C4FF00108E2
:1033000008FA0CF8C2F81080401C0828CED354608C
:10331000BDE8F08100BFFEE700BFFEE77047000098
:1033200070B5002100230F22C47804B3154C246823
:1033300004F4E064C4F5E064210AC1F10403CA4066
:10334000447804FA03F184781440214309010E4CB7
:103350000678A155047804F01F050124AC400578D7
:103360006D11AD0005F1E025C5F8004109E00478D4
:1033700004F01F050124AC40044D0678761145F891
:10338000264070BD0CED00E000E400E080E100E0CC
:10339000024A0A400243024B1A60704780FFFF1F37
:1033A00008ED00E07047000029B1064A9269024327
:1033B000044B9A6104E0034A92698243014B9A618B
:1033C000704700000010024030B5002100220024A8
:1033D00000232D4D6D6805F00C0121B1042905D0A5
:1033E000082923D105E0294D056022E0274D05601D
:1033F0001FE0254D6D6805F47012234D6D6805F4CE
:103400008034022505EB92421CB9214D55430560DD
:103410000BE01D4D6D6805F400351DB11C4D554385
:10342000056002E0194D5543056002E0174D056047
:1034300000BF00BF144D6D6805F0F0010909154D7E
:103440006B5C0568DD4045600F4D6D6805F4E0611B
:10345000090A104D6B5C4568DD4085600A4D6D685A
:1034600005F46051C90A0B4D6B5C4568DD40C560D1
:10347000054D6D6805F44041890B074D6B5CC568CF
:10348000B5FBF3F5056130BD0010024000127A0073
:1034900000093D000000002010000020704710B51A
:1034A00000F002F810BD00000CB500200190009063
:1034B0003348006840F480303149086000BF30482C
:1034C000006800F4003000900198401C01900098C2
:1034D00018B90198B0F5A06FF1D12948006800F43F
:1034E000003010B10120009001E000200090009811
:1034F000012843D12348006840F0100021490860AA
:103500000846006820F0030008600846006840F0A4
:10351000020008601A484068194948600846406837
:1035200048600846406840F480604860084640684B
:1035300020F47C1048600846406840F4E810486079
:103540000846006840F08070086000BF0C480068C2
:1035500000F000700028F9D00948406820F003000E
:10356000074948600846406840F00200486000BFD4
:103570000348406800F00C000828F9D10CBD000099
:1035800000100240002002407047000010B51348B0
:10359000006840F001001149086008464068104981
:1035A00008400E494860084600680E4908400B492B
:1035B00008600846006820F48020086008464068DB
:1035C00020F4FE0048604FF41F008860FFF767FF9B
:1035D0004FF000600449086010BD00000010024078
:1035E0000000FFF8FFFFF6FE08ED00E021B1828940
:1035F00042F40052828104E082894DF6FF731A4042
:103600008281704702460020B1F5007F00D100BFE3
:1036100013880B400BB1012000E000207047F0B58B
:103620000346002400260025002040F66A17B94210
:1036300000D100BF1846C1F3421401F01F06012754
:1036400007FA06F5012C01D10C3004E0022C01D15F
:10365000103000E014301AB107682F43076002E011
:103660000768AF430760F0BD2DE9F04786B0054617
:103670000E460024A24600BFA1460027B08900B133
:1036800000BF2F462C8A4CF6FF700440F08804439C
:103690002C82AC894EF6F3100440B088318908437F
:1036A000718908430443AC81AC8A4FF6FF40044063
:1036B000B0890443AC8201A8FFF786FE1F48874209
:1036C00002D1DDF810A001E0DDF80CA0A88900F41B
:1036D000004040B10AEBCA0000EB0A103168490013
:1036E000B0FBF1F807E00AEBCA0000EB0A10316802
:1036F0008900B0FBF1F86420B8FBF0F00401200968
:10370000642101FB1089A88900F4004040B13220F7
:1037100000EBC900B0FBF1F000F00700044308E043
:10372000322000EB09106421B0FBF1F000F00F0033
:1037300004432C8106B0BDE8F0870000003801404A
:10374000C1F308028280704700BFFEE702E008C8AC
:10375000121F08C1002AFAD170477047002001E00B
:1037600001C1121F002AFBD170470000F0B5B1B0B3
:10377000002600240027402226A121A8FFF7F4FC00
:10378000402234A111A8FFF7EFFC402241A101A87B
:10379000FFF7EAFC4FF440514FF00060FFF7F8FDEF
:1037A0004FF4E13000F098F821A8FFF7EFFC054650
:1037B00000BF05E021A8015D464800F0F1F8641C57
:1037C000AC42F7DB11A8FFF7E1FC0546002405E059
:1037D00011A8015D3F4800F0E3F8641CAC42F7DB40
:1037E00001A8FFF7D3FC0546002405E001A8015D10
:1037F000384800F0D5F8641CAC42F7DB0A20FFF72C
:10380000F0FC0A20FFF7DFFC0A20FFF7DCFC0020B9
:1038100031B0F0BD3D3D3D3D3D3D5468697320698B
:10382000732074686520666972737420746573749C
:103830002041505020636F646520666F7220746869
:10384000652073746D3332204F54413D3D3D3D3D05
:103850003D3D00003D3D3D3D3D3D796F752063613F
:103860006E206368616E6765207468652041505002
:1038700020636F646520746F207768617420796FAE
:10388000752077616E743D3D3D3D3D3D3D3D3D3D87
:103890003D3D00003D3D3D3D3D3D3D3D3D3D3D3DD2
:1038A0003D3D3D3D3D3D3D3D3D3D3D3D3230323177
:1038B0002E30343D3D3D3D3D3D3D3D3D3D3D3D3D5D
:1038C0003D3D3D3D3D3D3D3D3D3D3D3D3D3D3D3D28
:1038D0003D3D00000038014010B586B0044601218E
:1038E00044F20400FFF760FD4FF40070ADF81400DF
:1038F00003208DF8160018208DF8170005A925481B
:10390000FFF77DFC4FF48060ADF8140004208DF8C3
:10391000170005A91F48FFF772FC25208DF800004D
:1039200003208DF801008DF8020001208DF80300BE
:103930006846FFF7F5FC01940020ADF80800ADF8EB
:103940000A00ADF80C00ADF810000820ADF80E002C
:1039500001A91148FFF788FE012240F225510E48C7
:10396000FFF75DFE01210C48FFF740FE012110200A
:10397000FFF71AFD4FF40050ADF8140003208DF846
:10398000160048208DF8170005A90448FFF737FCFA
:1039900006B010BD00080140003801400010014091
:1039A00070B504460D4629462046FFF7C9FE00BF04
:1039B00040210348FFF726FE0128F9D170BD000021
:1039C00000380140E4390008000000201400000025
:1039D0004C370008F83900081400002004040000E7
:1039E0005C37000800000000010203040102030428
:0839F00006070809020406089D
:04000005080031318D
:00000001FF
