:020000040800F2
:1000000098380020450100084D0100084F01000804
:1000100051010008530100085501000800000000CC
:100020000000000000000000000000005701000870
:1000300059010008000000005B010008951000084D
:100040005F0100085F0100085F0100085F01000810
:100050005F0100085F010008190300085F01000844
:100060005F0100085F0100085F0100085F010008F0
:100070005F0100085F0100085F0100085F010008E0
:100080005F0100085F0100085F0100085F010008D0
:100090005F0100085F0100085F0100085F010008C0
:1000A0005F0100085F0100085F0100085F010008B0
:1000B0008D110008BD1200085F0100085F010008F3
:1000C0005F0100085F0100085F0100085F01000890
:1000D0005F0100082D1800085F0100085F0100089B
:1000E0005F0100085F0100085F0100085F01000870
:1000F0005F0100085F0100085F0100085F01000860
:100100005F0100085F0100085F0100085F0100084F
:100110005F0100085F0100085F0100085F0100083F
:100120005F0100085F0100085F0100085F0100082F
:10013000DFF80CD000F04AF8004800470F2A00080A
:10014000983800200648804706480047FEE7FEE74B
:10015000FEE7FEE7FEE7FEE7FEE7FEE7FEE7FEE777
:10016000AD1000083101000810B5431A934209D2BE
:100170008318881803E010F8011D03F8011D521EB2
:10018000F9D210BD40EA01039B0703D009E008C97A
:10019000121F08C0042AFAD203E011F8013B00F84C
:1001A000013B521EF9D210BDD2B201E000F8012B82
:1001B000491EFBD270470022F6E710B513460A46E7
:1001C00004461946FFF7F0FF204610BD064C074DC8
:1001D00006E0E06840F0010394E807009847103417
:1001E000AC42F6D3FFF7A8FFF82C0008182D000842
:1001F0000146087800EB4002081D00EB82004288AF
:10020000087800EB4003081D00EB83000089824260
:1002100001D1012070470020FCE710B5027802EB05
:100220004203021D02EB8302927A4A40037803EBF9
:100230004304031D03EB84039A7210BD0246107839
:1002400000EB4003101D00EB8300807A884201D14F
:10025000012070470020FCE71FB54FF41660ADF891
:1002600008000020ADF80400ADF80A00ADF8060063
:1002700001A94FF0804001F0E7F90121880701F062
:1002800045F801221146900701F068F94FF4C0606B
:1002900000F092FC1C208DF8000000208DF8010079
:1002A00003208DF8020001208DF80300684600F05D
:1002B00049FC00214FF0804001F02BF81FBD0000E9
:1002C00010B50020034908800121880701F021F8BA
:1002D00010BD00000400002010B500200349088074
:1002E00000214FF0804001F014F810BD0400002000
:1002F00001200149087070470800002010B500F087
:100300009FF9012806D100F027FA002000F0CEF96D
:1003100000F0A2F910BD000010B5012000F09CF81B
:10032000002867D0012000F06BF833480088B0F552
:10033000FA6F00DB10BD30480088D8B92E4801881C
:10034000A0F5FA5030F81100A0B92B480188A0F5AB
:10035000FA5030F81100401C81B227480288A0F5FD
:10036000FA5020F812100021244801F06AF900F038
:1003700081FFDFE7214801F0DDF81F490A88A1F578
:100380007A6131F81210441A322C1BD91A480088AD
:10039000401C19490880002117480288A0F5FA502E
:1003A00020F8121014480288A0F57A6020F8124054
:1003B00011480088401C1049088000210F4801F0B6
:1003C00040F916E00C480188A0F5FA5030F8110009
:1003D000401C81B208480288A0F5FA5020F812109B
:1003E000064801F0A7F804490A88A1F57A6121F8C6
:1003F000120000BF00BF9DE77E1F002000040040E8
:100400000149086070470000140401401CB5002138
:10041000012000F0C1F90120009000208DF80400B7
:1004200010208DF8050000208DF80600684600F0C9
:1004300027F81CBD08B503208DF802000120ADF897
:10044000000048208DF803006946024800F0C4F916
:1004500008BD0000000C0140014600200022074BAF
:100460001B6803EA0102054B14331B680B4202D0E0
:100470000AB1012000E000207047000000040140A4
:10048000002123498279002A3AD00A46126803687B
:100490009A430B461A600A1D126803689A430B1DA3
:1004A0001A60027911440A6803681A430A60184AFC
:1004B0000832126803689A43154B08331A601A1DF4
:1004C000126803689A43124B0C331A604279102A5F
:1004D0000ED11A1F126803681A430D4B08331A60B5
:1004E0001A1D126803681A43094B0C331A600DE099
:1004F0000749427911440A6803681A430A6005E013
:10050000027911440A6803689A430A607047000040
:100510000004014008B54FF4C06000F04DFB062018
:100520008DF8000000208DF801008DF802000120F8
:100530008DF80300684600F005FB08BD1CB50021DE
:10054000012000F029F90120009000208DF804001E
:100550000C208DF8050001208DF806006846FFF795
:100560008FFF1CBD1CB50021012000F015F90120F2
:10057000009000208DF804000C208DF8050000206C
:100580008DF806006846FFF77BFF1CBD10B500F034
:1005900057F830B900F0E0F8012000F087F800F0DB
:1005A0005BF810BD10B5FFF745FFFFF7B3FFFFF78E
:1005B0002DFF10BD0149C8607047000000200240B7
:1005C00030B5044604254FF4302000F0D1F805463C
:1005D000042D17D10C48006940F002000A49086157
:1005E00008464461006940F0400008614FF4302043
:1005F00000F0BEF805460448006941F6FD71084068
:1006000001490861284630BD0020024004200B4902
:10061000C96811F0010F01D001200EE00749C96837
:1006200011F0040F01D0022007E00449C96811F05D
:10063000100F01D0032000E004207047002002408A
:1006400000200449C96911F0020F01D0012000E027
:1006500000207047002002400348006940F08000FD
:1006600001490861704700000020024070B504464F
:100670000D460426F00200F07BF80646042E11D148
:100680000948006940F00100074908612580F0022F
:1006900000F06EF806460448006941F6FE71084015
:1006A00001490861304670BD0020024030B5054662
:1006B00004244FF4302000F05BF80446042C41D1B0
:1006C000214822498860224888600846006940F035
:1006D000200008610846006940F0400008614FF4BE
:1006E000302000F045F80446042C22D11748006958
:1006F00041F6DF710840154908610846006940F07D
:10070000100008611DB100201249088002E0A520F8
:10071000104908804FF4302000F02AF80446052CD8
:1007200010D00A48006941F6EF7108400749086196
:1007300008E0052C06D00548006941F6DF71084045
:1007400002490861204630BD230167450020024070
:10075000AB89EFCD00F8FF1F02480349486003480A
:10076000486070472301674500200240AB89EFCD08
:1007700000B502460423FFF749FF034603E0FFF7F5
:1007800045FF0346521E012B01D1002AF7D102B9C1
:100790000523184600BD000030B500228B071C0F52
:1007A0000F2303FA04F20B4B8C1053F824309343BD
:1007B000084C8D1044F8253023468C1053F8243013
:1007C0008C07240F00FA04F42343024C8D1044F8E4
:1007D000253030BD080001402DE9F04102460025DA
:1007E0000026002000230024002791F803C00CF00D
:1007F0000F0591F803C01CF0100F03D091F802C050
:100800004CEA050591F800C0BCF1000F31D0146826
:1008100000202BE04FF0010C0CFA00F3B1F800C0FF
:100820000CEA03069E4220D183004FF00F0C0CFA15
:1008300003F7BC4305FA03FC4CEA040491F803C037
:10084000BCF1280F06D14FF0010C0CFA00FCC2F8E5
:1008500014C00AE091F803C0BCF1480F05D14FF075
:10086000010C0CFA00FCC2F810C0401C0828D1D3BF
:100870001460B1F800C0BCF1FF0F34DD54680020F3
:100880002EE000F1080C4FF0010808FA0CF3B1F863
:1008900000C00CEA03069E4221D183004FF00F0CEA
:1008A0000CFA03F7BC4305FA03FC4CEA040491F884
:1008B00003C0BCF1280F05D100F1080C08FA0CF8B0
:1008C000C2F8148091F803C0BCF1480F07D100F1C1
:1008D000080C4FF0010808FA0CF8C2F81080401C10
:1008E0000828CED35460BDE8F081F8B506460C4622
:1008F0001546ADF8005034B110208DF803000320E8
:100900008DF8020005E004208DF8030003208DF827
:10091000020069463046FFF75FFFF8BDF0B50A46B2
:10092000002300240021002500F00046B6F1004F0E
:1009300002D11D4EF16901E01B4E7168C0F3034501
:1009400083B200F44016B6F5401F08D121F0706163
:10095000154E766826F07066134F7E6012E000F444
:100960008016B6F5801F06D1032606FA05F4A143CA
:1009700041F0706106E0460D360103FA06F6B14318
:1009800041F0706122B1460D360103FA06F631439B
:1009900000F00046B6F1004F02D1034EF16101E0D4
:1009A000014E7160F0BD00000000014041617047E0
:1009B000016170470246002109E001EB4103101D6F
:1009C00010F8230008B908467047481CC1B2012935
:1009D000F3DB0120F8E72DE9F04107460D46164606
:1009E000002400BF05E0295D384601F02CF8601CAA
:1009F00084B2B442F7DBBDE8F081000010B54FF4DB
:100A0000806201210748FFF770FF012000F06CF8B9
:100A100000F06CFE012200210248FFF766FFFFF79D
:100A2000C1FD10BD000C014010B5044600F098FE59
:100A3000204601F0A7F910BD10B5044600F084FE71
:100A4000204601F09FF910BD4CF6CC4001490860EA
:100A5000704700000030004010B500F013F810BDE2
:100A600010B545F2555000F021F8042000F012F8BE
:100A700040F2391000F014F800F004F8FFF7E4FF3A
:100A800010BD00004AF6AA20014908607047000026
:100A900000300040014948607047000000300040CD
:100AA000014988607047000000300040014908603B
:100AB000704700000030004010B503460224012BAF
:100AC0000ED108E00748006880F48060054908609E
:100AD000142000F0CBFF2000A4F10101CCB2F1D131
:100AE00010BD00000C0C014010B50446012C03D1D0
:100AF00081020248FFF75CFF10BD0000000C0140BE
:100B000010B50446012C03D181020248FFF74EFFC5
:100B100010BD0000000C014008B54FF4C06000F0AB
:100B20004BF825208DF8000000208DF801000220F0
:100B30008DF8020001208DF80300684600F002F8ED
:100B400008BD000070B5002100230F22C4780CB34B
:100B5000164C246804F4E064C4F5E064210AC1F191
:100B60000403CA40447804FA03F184781440214312
:100B700009010F4C0678A155047804F01F050124E3
:100B8000AC4005786D114FF0E02606EB8505C5F801
:100B9000004109E0047804F01F050124AC40054D34
:100BA0000678761145F8264070BD00000CED00E097
:100BB00000E400E080E100E002490143024A1160E4
:100BC000704700000000FA050CED00E029B1064A6C
:100BD000D2690243044BDA6104E0034AD2698243DA
:100BE000014BDA61704700000010024029B1064A4B
:100BF00012690243044B1A6104E0034A12698243FA
:100C0000014B1A61704700000010024029B1064AEA
:100C100092690243044B9A6104E0034A9269824359
:100C2000014B9A61704700000010024029B1064A4A
:100C3000D2680243044BDA6004E0034AD26882437C
:100C4000014BDA60704700000010024010B500F060
:100C50002DF8002000F0ECF8012000F00FF900BFA3
:100C6000212000F0B3F80028FAD0002000F0D4F8DA
:100C7000002000F027F94FF4806000F017F94FF4DE
:100C80002011002000F030F9012000F027F900BF0A
:100C9000392000F09BF80028FAD0022000F032F949
:100CA00000BF00F0B1F80828FBD110BD0F48006864
:100CB00040F001000D490860084640680C490840B2
:100CC0000A494860084600680A4908400749086020
:100CD0000846006820F4802008600846406820F438
:100CE000FE0048604FF41F0088607047001002400B
:100CF0000000FFF8FFFFF6FE30B5002100220024BF
:100D000000232D4D6D6805F00C0121B1042905D09B
:100D1000082923D105E0294D056022E0274D056013
:100D20001FE0254D6D6805F47012234D6D6805F4C4
:100D30008034022505EB92421CB9214D55430560D4
:100D40000BE01D4D6D6815F4003F03D01C4D55435D
:100D5000056002E0194D5543056002E0174D05603E
:100D600000BF00BF144D6D6805F0F0010909154D75
:100D70006B5C0568DD4045600F4D6D6805F4E06112
:100D8000090A104D6B5C4568DD4085600A4D6D6851
:100D900005F46051C90A0B4D6B5C4568DD40C560C8
:100DA000054D6D6805F44041890B074D6B5CC568C6
:100DB000B5FBF3F5056130BD0010024000127A006A
:100DC00000093D001E0000202E00002010B5014645
:100DD0000022002300204A11012A02D1094C236875
:100DE00006E0022A02D1074C236A01E0054C636A3F
:100DF00001F01F02012494401C4201D0012000E0B8
:100E0000002010BD001002400248406800F00C00B5
:100E1000704700000010024001460020034A50685D
:100E200020F0F000084350607047000000100240BE
:100E30001149096821F480310F4A1160114609688F
:100E400021F480211160B0F5803F03D0B0F5802FF0
:100E50000ED106E00849096841F48031064A116064
:100E600007E00549096841F4A021034A116000E048
:100E700000BF00BF70470000001002400149086039
:100E8000704700000000424210B501210D20FFF71D
:100E9000BDFE01218803FFF7B9FE0121C802FFF75B
:100EA000B5FE01210320FFF791FE10BD0146002091
:100EB000034A506820F4E060084350607047000027
:100EC0000010024001460020034A506820F46050A0
:100ED00040EAC100506070470010024001490866B6
:100EE000704700000000424202460020044B586850
:100EF00020F47C1042EA01031843014B586070470C
:100F00000010024001460020034A506820F0030010
:100F100008435060704700000010024070B503465F
:100F20000020154602EBD576C6F34F0408E0064DC7
:100F300005EB832535F8105021F81050451CA8B258
:100F4000A042F4DB70BD00000030000810B500F0D6
:100F500001F810BD0CB500200190009032480068E7
:100F600040F480303049086000BF2F48006800F42A
:100F7000003000900198401C0190009818B9019829
:100F8000B0F5A06FF1D12848006810F4003F02D0FE
:100F90000120009001E0002000900098012842D13B
:100FA0002248006840F010002049086008460068A8
:100FB00020F0030008600846006840F00200086066
:100FC0001948406818494860084640684860084623
:100FD000406840F4806048600846406820F47C1017
:100FE00048600846406840F4E810486008460068D9
:100FF00040F08070086000BF0B48006810F0007F70
:10100000FAD00948406820F00300074948600846C4
:10101000406840F00200486000BF0348406800F0AC
:101020000C000828F9D10CBD00100240002002403D
:1010300030B5002001F038FE1349B1F1807F01D3B3
:1010400001201DE021F07F40401E4FF0E022506162
:1010500050170F22002807DA13071D0E0B4B00F064
:101060000F04241F1D5503E013071C0E084B1C54CE
:1010700000BF00204FF0E0229061072010610020A7
:1010800008B100BFFEE730BD007C920018ED00E023
:1010900000E400E010B504480068401C0249086004
:1010A000FFF7DAFC10BD00000000002010B5134867
:1010B000006840F001001149086008464068104986
:1010C00008400E494860084600680E4908400B4930
:1010D00008600846006820F48020086008464068E0
:1010E00020F4FE0048604FF41F008860FFF72EFFD9
:1010F0004FF000600449086010BD0000001002407D
:101100000000FFF8FFFFF6FE08ED00E000B587B035
:101110001D4800F019F91C4800F029FA40F2EF4090
:10112000ADF814000020ADF81000ADF81600ADF8D1
:10113000120004A9144800F087FA684600F073FA18
:101140006020ADF800000120ADF8020040F27720E9
:10115000ADF806000020ADF8080069460A4800F026
:101160000DFA0821084800F055FA0121064800F060
:10117000DFF90021044800F0D8F80021024800F00F
:10118000C8F807B000BD0000002C014010B50121D7
:10119000880700F0D2F9A0B10121880700F0B6F865
:1011A00008480088401C074908800846008844F623
:1011B000206190FBF1F201FB120010B900200149FF
:1011C000088010BD0400002000B585B0264800F05E
:1011D000BBF801210920FFF719FD01210220FFF7CB
:1011E000F5FC0120ADF8000048208DF80300032035
:1011F0008DF8020069461D48FFF7EEFA01211C48F0
:10120000FFF78CFB4CF24F30ADF80C002F20ADF8FF
:1012100008000020ADF80E00ADF80A0002A912483F
:1012200000F012FA0121104800F070F80122114676
:101230000D4800F093F94FF4C060FFF7BDFC1D208E
:101240008DF8040000208DF805008DF806000120BF
:101250008DF8070001A8FFF775FC0021024800F097
:1012600058F805B000BD000000040040000C01402B
:1012700000081A0010B50020054908600121054842
:1012800000F044F80121034800F043F810BD0000CD
:10129000140000200004004010B50020054908603B
:1012A0000121054800F032F80021034800F031F830
:1012B00010BD0000140000200004004010B5012102
:1012C0000E4800F03AF9B8B101210C4800F01EF8C0
:1012D0000B4800680A280AD3FFF7DEFF0948008898
:1012E000401C0849088001200749087004E00448B0
:1012F0000068401C0249086010BD00000004004066
:10130000140000207E1F00203C000020CA430282FF
:10131000704721B1028842F00102028004E0028895
:101320004FF6FE731A400280704731B1B0F8442086
:1013300042F40042A0F8442005E0B0F84420C2F393
:101340000E02A0F84420704710B504466848844255
:1013500008D10121C014FFF769FC0021E014FFF758
:1013600065FCC4E0B4F1804F08D101210846FFF7C5
:101370003DFC00210120FFF739FCB8E05D488442C4
:1013800008D101210220FFF731FC00210220FFF7E4
:101390002DFCACE05848844208D101210420FFF71D
:1013A00025FC00210420FFF721FCA0E053488442E3
:1013B00008D101210820FFF719FC00210820FFF7C0
:1013C00015FC94E04E48844208D101211020FFF71B
:1013D0000DFC00211020FFF709FC88E049488442F9
:1013E00008D101212020FFF701FC00212020FFF778
:1013F000FDFB7CE04448844208D101214014FFF702
:1014000015FC00216014FFF711FC70E03F48844296
:1014100009D10121C804FFF709FC00214FF4002085
:10142000FFF704FC63E03A48844209D10121080532
:10143000FFF7FCFB00214FF48010FFF7F7FB56E0AD
:101440003448844209D101214805FFF7EFFB002110
:101450004FF40010FFF7EAFB49E02F48844208D11F
:1014600001214020FFF7C2FB00214020FFF7BEFB17
:101470003DE02A48844208D101218020FFF7B6FBD5
:1014800000218020FFF7B2FB31E02548844208D1DB
:1014900001218015FFF7AAFB0021A015FFF7A6FB8D
:1014A00025E02048844209D101210804FFF7BEFB52
:1014B00000214FF48030FFF7B9FB18E01A4884424E
:1014C00009D101214804FFF7B1FB00214FF400309E
:1014D000FFF7ACFB0BE01548844208D101218804DA
:1014E000FFF7A4FB00214FF48020FFF79FFB10BD06
:1014F000002C01400004004000080040000C0040A7
:10150000001000400014004000340140004C014035
:10151000005001400054014000180040001C0040F1
:1015200000200040004001400044014000480140CC
:10153000818270470146888C704730B50246002092
:1015400000230024158A05EA0103958905EA0104B0
:1015500013B10CB1012000E0002030BD1AB1838925
:101560000B43838102E083898B4383817047018928
:101570004FF6F872114001817047000070B50024E9
:1015800000220023058C4FF6FE7635400584028C40
:101590008388048B4FF68F752C40B51E2C400D8828
:1015A0002C43751E2A400D892A434D882A43144D29
:1015B000A8420BD0134DA84208D0134DA84205D025
:1015C000124DA84202D0124DA84213D14FF6F77522
:1015D0002A404D892A434FF6FB752A408D882A43BD
:1015E0004FF6FF652B404FF6FF552B408D892B435F
:1015F000CD892B4383800483CD888586028470BD8A
:10160000002C0140003401400040014000440140F2
:10161000004801400A460021018B4FF6F77319403C
:101620001143018370470021018041808180C18086
:10163000018141818181C1817047818570478186A7
:101640007047818470470000002202881D4B984239
:101650000ED01D4B98420BD0B0F1804F08D01B4BE1
:10166000984205D01A4B984202D01A4B984204D1A6
:101670004FF68F731A404B881A43174B984207D086
:10168000164B984204D04FF6FF431A40CB881A43BA
:1016900002808B8883850B8803850A4B98420BD088
:1016A000094B984208D00E4B984205D00D4B9842FA
:1016B00002D00D4B984201D10B7A0386012383821D
:1016C00070470000002C014000340140000400403D
:1016D00000080040000C00400010004000140040D2
:1016E00000400140004401400048014008B54FF46B
:1016F0008070ADF8000018208DF8030003208DF8ED
:10170000020069460148FFF767F808BD000801407C
:1017100070B50446002500260948B0FBF4F0401ED1
:1017200085B229460748FFF788FF681C0A2190FB0D
:10173000F1F086B231460348FFF781FF70BD00002B
:10174000006CDC02002C014010B500210348FFF7BB
:10175000ECFD00210148FFF7DCFD10BD002C01402D
:1017600010B501210348FFF7E0FD01210148FFF713
:10177000D0FD10BD002C014008B503208DF80200FB
:101780004FF40070ADF8000018208DF80300694692
:101790000748FFF721F84FF48060ADF800000420FF
:1017A0008DF8030069460248FFF716F808BD0000EF
:1017B0000008014010B5FFF7DFFF00F003F8FFF766
:1017C000ABF910BD00B587B00020ADF80400ADF84E
:1017D00006004FF40070ADF808000020ADF80A00D4
:1017E00001A9114800F041F84FF461400390002036
:1017F000ADF81000ADF81200ADF81400ADF8180007
:101800000C20ADF8160003A9074800F0A7F8012145
:10181000054800F03BF8012240F22551024800F053
:1018200078F807B000BD00000038014010B540F264
:101830002551074800F043F840B1054800F0FAF898
:10184000C4B22146034801F061F900BF10BD000099
:1018500000380140801F002001F40072B2F5007FC3
:1018600000D100BFCA430280704710B50246002075
:10187000108A4FF2FF0318400B884C8823438C8852
:101880002343CC8823431843108210BD21B18289A1
:1018900042F40052828104E082894DF6FF731A40BF
:1018A0008281704702460020B1F5007F00D100BF61
:1018B00013880B4201D0012000E00020704770B572
:1018C00002460024002300250020A1F510666A3E90
:1018D00000D100BFC1F3421501F01F03012606FA33
:1018E00003F3012D02D19689334006E0022D02D187
:1018F000168A334001E0968A33400C12012606FA1C
:1019000004F41688344013B10CB1012000E000202B
:1019100070BDF0B503460024002600250020A1F587
:1019200010676A3F00D100BF1846C1F3421401F0AE
:101930001F06012707FA06F5012C01D10C3004E03F
:10194000022C01D1103000E014301AB107682F4387
:10195000076002E00768AF430760F0BD2DE9F0477C
:1019600086B005460E460024A24600BFA1460027C9
:10197000B08900B100BF2F462C8A4CF6FF7004409E
:10198000F08804432C82AC894EF6F3100440B088F2
:1019900031890843718908430443AC81AC8A4FF60E
:1019A000FF400440B0890443AC8201A8FFF7A4F9CA
:1019B0001F48874202D1DDF810A001E0DDF80CA03D
:1019C000A88910F4004F08D00AEBCA0000EB0A10F7
:1019D00031684900B0FBF1F807E00AEBCA0000EB00
:1019E0000A1031688900B0FBF1F86420B8FBF0F010
:1019F00004012009642101FB1089A88910F4004F1B
:101A000008D0322000EBC900B0FBF1F000F0070075
:101A1000044308E0322000EB09106421B0FBF1F030
:101A200000F00F0004432C8106B0BDE8F0870000F1
:101A30000038014001468888C0F308007047C1F3B0
:101A400008028280704770B504460D46402120464A
:101A5000FFF702FF29462046FFF7F1FF00BF4021B4
:101A60002046FFF71FFF0028F9D070BD07E00021D6
:101A700000E0491C4FF6FF729142FAD300BF01000B
:101A8000A0F10100F3D170472DE9F04104460E4664
:101A9000174600250120FFF7F1F9FEF75DFE34201F
:101AA000FEF788FD0B4901EB8420FEF789FD0AE073
:101AB000084A02EB842202EB450036F81510FEF7C7
:101AC000D5FD681C85B2BD42F2DBFEF7C5FDBDE861
:101AD000F08100000030000802E008C8121F08C1B1
:101AE000002AFAD170477047002001E001C1121F9F
:101AF000002AFBD17047000010B54FF480710748F1
:101B0000FEF759FB0020064908704FF400610548B4
:101B1000FEF751FB00200449088010BD941F0020EF
:101B20001A000020942000201C00002010B541F66F
:101B300044710348FEF73FFB00200149087010BDC7
:101B40003C00002070B504460D4605EB4501201D04
:101B500000EB8100406870B105EB4502211D01EBEF
:101B60008201486800F038F9002105EB4502201D8C
:101B700000EB82004160002105EB4502201D00EBD7
:101B80008200018105EB4502201D00EB82004180AF
:101B900005EB4502201D00EB8200817205EB45023A
:101BA000201D00F8221070BD10B501460023B1F8C9
:101BB000EA03401CB0F57A7F11DA012203E0885C69
:101BC0004340501C82B2B1F8EA039042F7DCB1F80E
:101BD000EA43601CA1F8EA030B55002010BD012068
:101BE000FCE70246B2F8EA03801CB2F8E8339842F8
:101BF00019DC00200880B2F8EA33581CA2F8EA0386
:101C0000D05C088008884FF6FF7303EA0020088044
:101C1000B2F8EA33581CA2F8EA03D05C0B881843E8
:101C20000880002070470120FCE70246B2F8EA0372
:101C3000001DB2F8E83398422EDC00200860B2F8AC
:101C4000EA33581CA2F8EA03D05C08600868000276
:101C50000860B2F8EA33581CA2F8EA03D05C0B68BB
:101C600018430860086800020860B2F8EA33581C9C
:101C7000A2F8EA03D05C0B68184308600868000209
:101C80000860B2F8EA33581CA2F8EA03D05C0B688B
:101C900018430860002070470120FCE70246B2F8B4
:101CA000EA03401CB2F8E83398420ADC00200870CE
:101CB000B2F8EA33581CA2F8EA03D05C087000209E
:101CC00070470120FCE710B50246B2F8EA03801C19
:101CD000B0F57A7F0EDA0B0AB2F8EA43601CA2F87C
:101CE000EA031355B2F8EA43601CA2F8EA0311555F
:101CF000002010BD0120FCE710B50246B2F8EA034F
:101D0000001DB0F57A7F1EDA080EB2F8EA43631CB4
:101D1000A2F8EA331055C1F30743B2F8EA43601C56
:101D2000A2F8EA031355C1F30723B2F8EA43601C93
:101D3000A2F8EA031355B2F8EA43601CA2F8EA03DA
:101D40001155002010BD0120FCE70246B2F8EA035D
:101D5000401CB0F57A7F07DAB2F8EA33581CA2F8D3
:101D6000EA03D154002070470120FCE70146B1F896
:101D7000EA03C01E000A487091F8EA03C01E88708A
:101D8000002070470021074A118007E0322190FBB4
:101D9000F1F1044A1288914200DC00E0F6E700BF4E
:101DA000704700000400002010B5FFF7CDFCFEF7DF
:101DB00093FA10BD10B5FEF78FFA10BD10B5FFF7FE
:101DC000C3FCFEF77DFA10BD10B504462046FFF7B0
:101DD0009FFCFEF775FA10BD10B5002821D0114BFD
:101DE000001F0022196803E0814203D80A464968AF
:101DF0000029F9D152B11368841A9C4204D10068B9
:101E000018441060104602E0506000E0186039B1DC
:101E100002680B1A934203D10B681A4402604968A6
:101E2000416010BD340000202DE9F04105460E460A
:101E30001746002424E004EB4401281D10F821007B
:101E4000E0B104EB4401281D00EB810000893080E3
:101E500004EB4403281D00EB8300028904EB4403D8
:101E6000281D00EB830041683846FEF77DF92146C6
:101E70002846FFF767FE0120BDE8F081601CC4B270
:101E8000012CD8DB0020F7E70146082913D2DFE850
:101E900001F0120406080A0C0E1001200DE00320C8
:101EA0000BE0072009E00F2007E01F2005E03F209E
:101EB00003E07F2001E0002000BF00BF704700006A
:101EC000F0B504460B4600210026002500BF08E0BF
:101ED00033F81170B74202DD33F811600D464F1C24
:101EE000B9B29142F4DB33F815707F1EDFF810C0F1
:101EF00007FB0CF734F815C0B7FBFCF0F0BD000091
:101F000040420F0000B5ADF57B7D0020ADF8EA033F
:101F10006A46FAA90548FFF787FF012802D16846FB
:101F200000F082FB0DF57B7D00BD0000801F0020CE
:101F30002DE9FF4F074691461D46DDF83480002607
:101F40000024A24600229346082D01DC032410E061
:101F5000102D01DC04240CE0202D01DC052408E018
:101F6000402D01DC062404E0802D01DC072400E084
:101F700008244FF0000A002200264BE01019102818
:101F800015DC1019C2B22046FFF77EFF38F8161094
:101F9000C2F110031941084000F0FF0B39F81B3063
:101FA0005046411C1FFA81FA27F8103032E0C2F186
:101FB0001001C8B2FFF768FF18F816100840C2F108
:101FC0001001611A884000F0FF0B701C86B20E9859
:101FD000864200DB21E0C2F11001611AC8B2FFF7AE
:101FE00053FF38F81610C2F11003E31AC3F11003BF
:101FF0001941084040EA0B0000F0FF0BC2F110004D
:10200000201AC2B239F81B305146481C1FFA80FA18
:1020100027F811300E988642B0DB00BF0198A0F877
:1020200000A0002004B0BDE8F08F2DE9FF4F04466A
:102030008A4691460026B0460025AB46002200277E
:1020400000BF10E034F81600322190FBF1F000EBF5
:10205000C00101EB00104FF6FF7101EA400024F8C7
:102060001600701C86B2BAF80000B042EADC002309
:102070002846691CCDB229F8103023882846691CEF
:10208000CDB229F81030002622E04FF000081AE007
:10209000A8450DD1FF2D07DC34F816302846691C01
:1020A000CDB229F8103010E0022004B0BDE8F08F66
:1020B00039F8180034F81610884200D105E008F10C
:1020C000010000F0FF08A845E2DD00BF701C86B2E9
:1020D000BAF80000B042D8DC03980570082D02DC85
:1020E0004FF0030B15E0102D02DC4FF0040B10E055
:1020F000202D02DC4FF0050B0BE0402D02DC4FF0F1
:10210000060B06E0802D02DC4FF0070B01E04FF0DC
:10211000080B0022002700265EE04FF0000856E082
:1021200039F8180034F8161088424CD1002024F8F1
:102130001600CBF11000B84214DB17B9002024F8C8
:10214000120034F8120000FA0BF040EA080024F8FC
:10215000120007EB0B00C7B2102F33D1501C82B214
:1021600000272FE034F81200C7F11001884024F84E
:102170001200C7F11001C8B2FFF786FEC7F11001C7
:10218000ABEB010148FA01F1084034F812100843A2
:1021900024F81200501C82B2002024F81200C7F16B
:1021A0001001ABEB0101C8B2FFF76EFE00EA0800B8
:1021B00034F81210084324F81200C7F11000ABEBFA
:1021C0000000C7B205E008F1010000F0FF08A845D3
:1021D000A6DB00BF701C86B2BAF80000B0429CDCDF
:1021E000102F08D03FB134F81200C7F11001884019
:1021F00024F812000027501C82B2AAF80020002008
:1022000053E7000038B54948007801287ED1484896
:102210000288A0F5FA51A0F57A60FFF751FE044656
:10222000434800880A2806DB44F62060844202D333
:102230004048844204D9FFF779FCFFF75DFC38BDC4
:10224000FFF75AFC3C4B3D4A3949A1F57A60FFF74C
:10225000ECFE3B48007803280CD10120FEF72CFC53
:1022600033480094018834480378344A354800F0F4
:1022700073FB54E032480078022850D1324800788D
:1022800020B9FF21012000F03DFB48E02A480078FA
:10229000001D27490988084485B2254909884A0054
:1022A0002849254B1B781B1D01EB4300FDF75CFF04
:1022B0004FF6FF7000EA14411C48A0F8A21FA0F8D6
:1022C000A44F1C48844204D9FF21012000F01AFBCE
:1022D00024E0194800781549A1F8A60F164800789F
:1022E000420016491748801DFDF73EFF104802883E
:1022F000144811490978C91C20F81120124948785E
:102300002A461049FFF7C0FB012000E00CE0FEF771
:10231000D3FB0D484178002000F0F4FA00BFFFF72E
:1023200005FCFFF7E9FB00BF00BF88E73C00002089
:102330007E1F0020A08601001A000020941F0020AC
:1023400008000020DE0F0020180000207FB50546A1
:1023500000240020039002900190009003A92846D9
:10236000FFF79CFC02A92846FFF75FFC4FF6FF71C0
:10237000029801EA10412E48A0F8A21F029881B2EB
:102380002B48A0F8A41F01A92846FFF72AFCBDF896
:10239000040000EBD07149100191BDF804102448ED
:1023A000A0F8A61F00BF08E0E01C224A02EB400193
:1023B0002846FFF716FC601C84B2BDF80400844276
:1023C000F2DB69462846FFF70CFCBDF800201948EF
:1023D000BDF80410C91C20F81120BDF8000000EB66
:1023E000D0714910009100240BE0BDF80400001DDD
:1023F0000219104800EB42012846FFF7F2FB601C6F
:1024000084B2BDF800008442EFDBBDF80400BDF8E3
:1024100000100844001D82B206499DF80C00FFF729
:1024200033FB002142F2010000F03AFA7FBD0000C8
:102430003C000020DE0F002010B50446002142F2CF
:10244000020000F02DFA10BD3EB5044600200290B7
:10245000002502A92046FFF721FC2F48007801281B
:1024600004D00521102000F01BFA3EBDFFF75EFBF3
:10247000FFF742FB4FF4806228499DF80800FEF701
:102480004DFD2748B0F8A20F264901EA0040244933
:10249000B1F8A41F40EA0105214890F8A60F22498F
:1024A00008700846007842001C49891D1F48FDF746
:1024B0005BFE1D480078C01C184931F810001C490B
:1024C000088008460088420017480078001D134B1A
:1024D00003EB40011748FDF747FE154800881549F2
:1024E000CDE9001010480378104A13490B48FFF754
:1024F0001FFD114801882A46084800F0ABFBFFF792
:1025000015FBFFF7F9FA0120FEF7D6FA002110209B
:1025100000F0C6F900BFA8E708000020DE0F002089
:102520003C0000200000FFFF1A000020941F002044
:102530001C000020942000207E1F002010B50446BF
:102540000F480078022803D00D480078032804D1F2
:102550000521012000F0A4F910BDFFF72FFCFDF7C5
:10256000EDFFFFF7E3FA0220054908700120FEF7AE
:10257000C7FA0021012000F093F900BFECE700004A
:102580000800002010B504460C480078022804D04A
:102590000521022000F084F910BDFFF705FCFDF7CE
:1025A000E1FFFFF7C3FA012004490870FEF79CFA27
:1025B0000021022000F074F900BFEDE708000020C0
:1025C00038B504460020009069462046FFF766FBB8
:1025D00010480078022804D00521032000F060F99B
:1025E00038BD9DF80000322804DB0321084600F0C6
:1025F00057F9F5E70120084908709DF80000487078
:102600000120FEF759FA0021032000F049F900BF2C
:10261000E6E70000080000201800002010B5FFF7D2
:1026200085FAFFF769FA10BD38B50446002000901E
:1026300069462046FFF7D5FABDF8001041F20202C4
:10264000881A914235D00EDC032926D004DC0129FA
:102650001BD002294DD11CE0102922D06FF48050EC
:10266000081846D121E0B0F5805F2ED006DC0E2898
:1026700023D0A0F57060FF383BD122E0A0F55F4089
:10268000FF3826D0012834D12BE02046FFF756FF33
:1026900035E02046FFF776FF31E02046FFF790FF58
:1026A0002DE02046FFF7D0FE29E0204600F02AF872
:1026B00025E0204600F04AF821E0204600F064F8CA
:1026C0001DE02046FFF742FE19E02046FFF7B4FE6A
:1026D00015E0FDF75BFF00214FF2010000F0E0F88C
:1026E0000DE0FDF70BFE00214FF2020000F0D8F8DC
:1026F00005E00221BDF8000000F0D2F800BF00BFE5
:1027000038BD000010B504460F480078022803D0F9
:102710000D480078032805D1052141F2010000F0A1
:10272000BFF810BDFFF74AFBFDF708FF032006497D
:1027300008700120FEF7E4F9002141F2010000F0E9
:10274000AFF800BFEDE700000800002010B5044618
:102750000C480078032805D0052141F2020000F062
:102760009FF810BDFFF720FBFDF7FCFE0120054997
:102770000870FEF7B9F9002141F2020000F090F86C
:1027800000BFEEE70800002030B587B00546002006
:102790000690059004903C480078012806D0052159
:1027A00041F2100000F07CF807B030BD03A92846C4
:1027B000FFF717FA06A92846FFF737FA4FF480719A
:1027C0003248FDF7F8FC00203149087005A9284679
:1027D000FFF707FABDF8140000EBD071C1F3470111
:1027E0002B4A1170002407E0284800EB44012846DA
:1027F000FFF7F7F9601C84B2254800788442F3DBC8
:102800004FF400612348FDF7D6FC002022490880E0
:1028100005A92846FFF7E5F9BDF8140000EBD071D3
:1028200049101D4A1180002407E01A4800EB4401BA
:102830002846FFF7D6F9601C84B217480088844206
:10284000F3DBFFF773F9144800881249CDE9001053
:102850000F4803780D4A04A91048FFF769FBBDF83B
:1028600010100E48069A00F0F5F9FFF75FF9FFF730
:1028700043F90120FEF720F9002141F2100000F099
:102880000FF800BF90E7000008000020941F002010
:102890001A000020942000201C000020DE0F0020E1
:1028A00030B5ADF57B7D04460D460020ADF8EA035A
:1028B000FC216846FFF749FA00216846FFF703FA52
:1028C00021466846FFF7FFF929466846FFF73DFABB
:1028D0006846FFF74BFA6846FFF766F9BDF8EA036A
:1028E000694600F003F80DF57B7D30BD70B50446F8
:1028F0000D46224629460248FEF76DF870BD0000DD
:102900000038014030B5ADF57B7D04460D46002012
:10291000ADF8EA03FC216846FFF717FA0021684684
:10292000FFF7D1F904216846FFF7CDF92146684643
:10293000FFF70BFA29466846FFF707FA6846FFF7E4
:1029400015FA6846FFF730F9BDF8EA036946FFF764
:10295000CDFF0DF57B7D30BD2DE9F047ADF57C7DDC
:1029600080460E4691461C46DDF810A40020ADF8C6
:10297000EE03FC2101A8FFF7E8F9002101A8FFF709
:10298000A2F941F2030101A8FFF79DF9062000EB2F
:102990004400801C00EB460081B201A8FFF793F9C8
:1029A000514601A8FFF7A8F927464FF6FF7000EA45
:1029B0004707394601A8FFF786F9002506E039F8F0
:1029C000151001A8FFF77FF9681C85B2A542F6DB58
:1029D0007004010C01A8FFF776F9002506E038F82D
:1029E000151001A8FFF76FF9681C85B2B542F6DB38
:1029F00001A8FFF7BBF901A8FFF7D6F8BDF8EE0371
:102A000001A9FFF773FF0DF57C7DBDE8F08700F0AD
:102A10006BF8FDF7F3FFFFF701FEFDF769FCFDF72B
:102A2000B5FD03E0FFF76EFAFFF7ECFBFAE770B5D0
:102A300004460E46154655B1284600F01FF8217889
:102A400001EB4102211D01EB8201486007E00021FA
:102A5000207800EB4002201D00EB82004160002145
:102A6000207800EB4002201D00EB820001812078DD
:102A700000EB4002201D00F8221070BDF0B50B30B5
:102A8000154D20F007010024144A0FE003688B4223
:102A90000BD38B4205D95E1A43184768C3E9006718
:102AA00000E04368136002C004E0021D10680028C3
:102AB000ECD12046002802D1286808B10020F0BDE2
:102AC000064A07481060074A121A22F00702C0E9B6
:102AD000002401202860D7E73800002034000020BF
:102AE0009C2800209834002010B5FEF7AFF8FEF7C0
:102AF000CBF9FEF75FFEFDF7AFFBFEF707FBFEF736
:102B000063FBFEF795FAFDF7ABFF10BD70B5044609
:102B10000D46207C08286FD2DFE800F004050A1873
:102B2000505B6F7F00BFFC2D01D1022020748FE02D
:102B3000207800EB4001201D00EB810045802946F4
:102B40002046FDF76AFB0320207481E02046FDF754
:102B500031FF2070207800EB4001201D00EB810048
:102B600040884FF47F4101EA00202843217801EB9F
:102B70004102211D01EB82014880207801281AD0F2
:102B8000207800EB4001201D00EB810040880228E6
:102B900011DB0420207429462046FDF73EFB2078F7
:102BA00000EB4003201D00EB830042882178204683
:102BB000FFF73DFF01E00020207449E02946204650
:102BC00000F078F80520207429462046FDF725FB03
:102BD0003EE02946204600F06DF829462046FDF7E4
:102BE0001CFB2046FDF704FB012802D107202074BE
:102BF00001E0062020742BE023E02946204600F067
:102C000059F829462046FDF708FB2046FDF7F0FA63
:102C1000012801D1072020741AE029462046FDF73B
:102C20000DFB012806D12178204600F035F801205F
:102C3000207405E00020207421782046FEF782FFF2
:102C400006E00020207421782046FEF77BFF00BFBD
:102C500000BF70BD2DE9F04105460E461746002421
:102C60003846FFF7B1F800BF0DE014F0010F04D0B3
:102C700035F81400FDF7E0FE03E035F81400FDF729
:102C8000D3FE601C84B2B442EFDB0020FDF7D4FE1B
:102C9000FFF790F8BDE8F08110B5012301EB410486
:102CA000021D02F8243010BD014908607047000081
:102CB0000000002010B5027802EB4203021D02EB77
:102CC00083025368027802EB4204021D02EB840285
:102CD00012899954027802EB4203021D02EB83022F
:102CE0001289521C93B2027802EB4204021D02EBDD
:102CF0008402138110BD0000182D00080000002080
:102D00003C000000D81A0008542D00083C000020A8
:102D10005C380000E81A0008000000000000000015
:102D200000000000000000000000000000000000A3
:102D30000000000000000000000001020304010286
:102D4000030406070809020406080000000000004A
:042D5000000000007F
:0400000508000131BD
:00000001FF
